:020000040800F2
:10000000C0070020890100083D1E0008C51900082E
:10001000E11C00088F020008992900080000000078
:10002000000000000000000000000000592200084D
:100030003703000800000000E51F00084D230008FA
:10004000A3010008A3010008A3010008A301000800
:10005000A3010008A3010008A3010008A3010008F0
:10006000A3010008A3010008A3010008A3010008E0
:10007000A3010008A3010008A3010008A3010008D0
:10008000A3010008A3010008A3010008A3010008C0
:10009000A3010008A3010008A3010008A3010008B0
:1000A000A3010008A3010008A3010008A3010008A0
:1000B000B1230008A3010008A3010008A301000860
:1000C000A3010008A3010008A3010008A301000880
:1000D000A30100088D290008A3010008A30100085E
:1000E000A3010008A3010008A301000800F002F822
:1000F00000F03AF80AA090E8000C82448344AAF188
:100100000107DA4501D100F02FF8AFF2090EBAE885
:100110000F0013F0010F18BFFB1A43F0010318473B
:100120002030000040300000103A24BF78C878C169
:10013000FAD8520724BF30C830C144BF04680C60ED
:10014000704700000023002400250026103A28BF35
:1001500078C1FBD8520728BF30C148BF0B60704739
:100160001FB51FBD10B510BD00F058F81146FFF7C0
:10017000F7FF02F023FC00F076F803B4FFF7F2FF7C
:1001800003BC00F07DF8000009488047094800479B
:10019000FEE7FEE7FEE7FEE7FEE7FEE7FEE7FEE737
:1001A000FEE7FEE704480549054A064B7047000094
:1001B000AF230008ED000008C0010020C0070020A8
:1001C000C0030020C00300204FF0000200B513461A
:1001D00094469646203922BFA0E80C50A0E80C5067
:1001E000B1F12001BFF4F7AF090728BFA0E80C5018
:1001F00048BF0CC05DF804EB890028BF40F8042B11
:1002000008BF704748BF20F8022B11F0804F18BF7D
:1002100000F8012B7047704770477047754600F033
:100220002BF8AE4605006946534620F00700854688
:1002300018B020B5FFF7B6FFBDE820404FF000062C
:100240004FF000074FF000084FF0000B21F00701BE
:10025000AC46ACE8C009ACE8C009ACE8C009ACE801
:10026000C0098D46704710B50446AFF300802046A4
:10027000BDE81040FFF781BF0048704760010020D3
:1002800001491820ABBEFEE7260002007047FEE7DA
:1002900010B504460146012001F03CFD2146BDE8B1
:1002A0001040012001F080BD10B504460146002039
:1002B00001F030FD2146BDE81040002001F074BD82
:1002C00010B504460146012001F024FD2146BDE899
:1002D0001040002001F068BD10B504460146002022
:1002E00001F018FD2146BDE81040012001F05CBD81
:1002F00010B50021022001F00DFD0021BDE81040E5
:10030000022001F051BD10B504464108002001F063
:1003100001FD2146BDE81040002001F045BD10B5AB
:1003200004460146002001F0F5FC6108BDE81040DC
:10033000002001F039BD704772B6FEE710B590F8A5
:1003400021100022022905D00421816380F8202099
:10035000012010BD01680B6823F00E030B600168DB
:100360000B6823F001030B6090F84030C46B01214F
:1003700001FA03F3636080F8211080F82020104612
:1003800010BD000010B590F821100024022903D000
:100390000421816301243DE001680A6822F00E0215
:1003A0000A6001680A6822F001020A601A4A0168BC
:1003B000914201D1012121E0174A1432914201D129
:1003C00010211BE0144A2832914201D1891515E011
:1003D000114A3C32914201D189140FE00E4A503249
:1003E000914202D14FF4803108E00B4A64329142CD
:1003F00002D14FF4801101E04FF08071064A083AB3
:100400005160012180F82110002180F82010416BFB
:1004100001B18847204610BD0800024070B504466F
:1004200000F008F90546601C02D004480078044436
:1004300000F000F9401BA042FAD370BD1800002064
:100440002DE9F84FDFF8B8910024A9F1040B2346F9
:100450000F2709F1040AABF1040EC9E00125A540FC
:100460002A40AA427DD1674ED1F804C0ACEB060801
:10047000B44532D014DCBCF1030F3AD009DCBCF136
:10048000000F2AD0BCF1010F1CD0BCF1020F31D1FA
:100490001DE0BCF1110F17D0BCF1120F2AD119E0E9
:1004A000B8F5881F19D006DCB8F5803F15D0B8F52F
:1004B000801F1FD111E0B8F5001F0ED0B8F5041F42
:1004C00018D10AE0CB6815E0CB681B1D12E0CB68A1
:1004D00008330FE0CB680C330CE08B682BB1012B99
:1004E0004FF0080303D0456104E0042302E00561F6
:1004F00000E00023FF2A01D8064601E000F10406CF
:100500004FEA840501D9A5F12005D6F8008007FA45
:1005100005FC28EA0C0803FA05F548EA0508C6F8C0
:1005200000804D68ED0062D5374DAE6946F001069A
:10053000AE61AD6924F0030605F001050095334D69
:1005400006EB050CDCF80850A607360F07FA06F88C
:1005500025EA0805DFF8B880404503D14FF00008D0
:1005600017E044E0DFF8AC80404502D14FF00108CD
:100570000FE0DFF8A480404502D14FF0020808E008
:10058000DFF89880404502D14FF0030801E04FF0BA
:10059000040808FA06F848EA0508CCF808804D680F
:1005A000D9F80060ED024D4601D5164300E09643B0
:1005B0002E604D68DAF80060AD02554601D516434D
:1005C00000E096432E604D68DBF80060AD035D46A9
:1005D00001D5164300E096432E604D68DEF80060BA
:1005E000ED03754601D5164300E096432E60641C6A
:1005F0000D682A46E5407FF431AFBDE8F88F000072
:1006000008040140000011100010024000000140E9
:1006100000080140000C014000100140001401409E
:100620008068084000D0012070470AB1016170471E
:100630000904FBE7014880687047000018000020AB
:1006400002488168027811448160704718000020D8
:10065000074810B5016841F010010160032000F067
:1006600075F80F2000F006F800F024F8002010BD07
:100670000020024070B50D4D04464FF47A71287881
:10068000B1FBF0F00A490968B1FBF0F000F0DCFAC8
:1006900048B9102C07D200222146501E00F036F82F
:1006A00000206C6070BD012070BD000018000020AB
:1006B000240000200C4808B5816941F001018161E6
:1006C000816901F001010091C16941F08051C1616E
:1006D000C06900F0805000900448416821F0E0615A
:1006E00041F00071416008BD00100240000001406F
:1006F000002809DB00F01F02012191404009800021
:1007000000F1E020C0F8001170470000F0B40E4B7B
:100710001B680C46C3F30223C3F10705042D00D95F
:100720000425191D072901D2002300E0DB1E012644
:1007300006FA05F1491E214099409E40761E16405A
:100740003143F0BC02F029B90CED00E0064900F09D
:10075000070208684FF6FF03184040EA0220034AE8
:1007600010430860704700000CED00E00000FA053F
:100770002DE9F0470F46050061D0434E306800F088
:100780000700B84209D2306820F0070038433060D3
:10079000306800F00700B84251D128683B4C81070F
:1007A00012D5400703D5606840F4E06060602878A7
:1007B000000703D5606840F4605060606068A96815
:1007C00020F0F000084360602878C00728D06868EF
:1007D000012810D02168022810D0890700292EDABC
:1007E000616821F0030101436160FFF723FF804648
:1007F00041F288390DE021688903EFE78901EDE7CF
:10080000FFF718FFA0EB0801494502D90320BDE816
:10081000F0876068696800F00C00B0EB810FEFD1E1
:10082000306800F00700B8420BD9306820F00700AC
:1008300038433060306800F00700B84201D0012032
:10084000E5E72878400705D56068E96820F4E060AE
:10085000084360602878000706D56068296920F49D
:10086000605040EAC100606000F038F86168084AF2
:10087000C1F30311515CC84006490860064800688E
:10088000FFF7F8FE0020C2E70020024000100240FF
:1008900028310008240000201C00002004480549DD
:1008A00000684968044AC1F30221515CC84070479E
:1008B0002400002000100240383100080448054997
:1008C00000684968044AC1F3C221515CC8407047BE
:1008D0002400002000100240383100080E4A516800
:1008E0000E4801F00C03042B11D0082B0FD10C483B
:1008F000C1F38343C903C05C0AD55168084AC1F3F8
:100900004041921E515C054A5043B0FBF1F07047E4
:1009100004494843704700000010024000127A006A
:100920001831000800093D002DE9F84F040070D08F
:100930002078C04DC00749D06868C0F38100012805
:1009400007D06868C0F38100022809D16868C00335
:1009500006D52868800339D560680028E7D035E0DF
:100960006068B0F5803F0BD010B1B0F5A02F11D06A
:10097000286820F480302860286820F4802002E075
:10098000286840F480302860606890B1FFF752FE1C
:1009900006460AE0286840F480202860F0E700BF9F
:1009A000FFF748FE801B642873D828688003F7D5BA
:1009B0000CE0FFF73FFE064605E000BFFFF73AFEFA
:1009C000801B6428F0D828688003F7D420789A4EDA
:1009D00080074FF001094FF0000839D5686810F022
:1009E0000C0F07D06868C0F38100022809D168683D
:1009F000C00306D42868800714D52069012808D1CF
:100A000010E02069B0B1C6F80090FFF713FE07466A
:100A100005E00AE1FFF70EFEC01B0228C4D82868D3
:100A20008007F7D52868616920F0F80040EAC10026
:100A300028600DE0C6F80080FFF7FCFD074604E0E3
:100A4000FFF7F8FDC01B022823D828688007F7D4D9
:100A5000207800072CD57948A169D9B1C0F8009059
:100A6000FFF7E8FD074604E0FFF7E4FDC01B02289E
:100A70000FD8686A8007F7D571484FF4FA510068BB
:100A8000B0FBF1F0009000BF0098411E0091FAD237
:100A90000EE080E0C0F80080FFF7CCFD074604E0E0
:100AA000FFF7C8FDC01B022875D8686A8007F7D415
:100AB0002078400760D5E8690027C00008D4E869BD
:100AC00040F08050E861E869012700F08050009014
:100AD0005C480168C90513D40168834641F48071FC
:100AE0000160FFF7A7FD824606E000BFFFF7A2FD09
:100AF000A0EB0A0064284ED8DBF80000C005F5D54D
:100B0000E06801280AD008B1052813D0286A20F02F
:100B100001002862286A20F0040002E0286A40F000
:100B200001002862E06841F2883B98B1FFF782FD3E
:100B300082460BE0286A40F004002862EEE700BF1E
:100B4000FFF778FDA0EB0A0159455AD8286A8007BB
:100B5000F6D50CE0FFF76EFD824605E0FFF76AFD73
:100B6000A0EB0A0159454CD8286A8007F6D41FB17A
:100B7000E86920F08050E861E06988B36968C1F3F2
:100B80008101022944D00228C6F8608004D0FFF712
:100B900051FD044638E034E0FFF74CFD074604E021
:100BA000FFF748FDC01B02282BD828688001F7D426
:100BB000206AB0F5803F05D16868A16820F4003054
:100BC00008436860D4E908010843696821F4741196
:100BD00008436860C6F86090FFF72CFD044606E005
:100BE00025E000BFFFF726FD001B022809D8286872
:100BF0008001F7D51BE000BFFFF71CFD001B02289A
:100C000002D90320BDE8F88F28688001F4D40EE0F3
:100C10000128F7D06868226A00F48031914204D13B
:100C2000616A00F47010884201D00120EAE70020D8
:100C3000E8E7000000100240000042428004424207
:100C4000240000200070004010B5401EB0F1807FED
:100C500001D3012010BD4FF0E02460610F21601727
:100C600001F09BFE0020A06107202061002010BD44
:100C70007047704710B590F83C20012A22D001221D
:100C800080F83C20CA688C6822F4407222434C6889
:100C900022F4806222430C6822F4006222430C6931
:100CA00022F4805222434C6922F400522243C96943
:100CB000002322F480420A4301684A6480F83C30F1
:100CC000002010BD022010BD70B590F83C20012A14
:100CD00026D0012480F83C40022280F83D200368A1
:100CE0005A689D6822F070060A6832435A600D4BBC
:100CF00002689A4208D0B2F1804F05D00A4B9A425E
:100D000002D00A4B9A4204D1496825F08003194366
:100D1000916080F83D40002180F83C10084670BD8D
:100D2000022070BD002C014000040040000800407B
:100D300010B5040003D094F83D0010B107E0012085
:100D400010BD002084F83C00204600F01FF802206F
:100D500084F83D00211D206801F036FB012084F855
:100D6000460084F83E0084F83F0084F8400084F890
:100D7000410084F8420084F8430084F8440084F879
:100D8000450084F83D00002010BD000008B50C4A65
:100D900001680C48914207D1816941F40061816189
:100DA000806900F4006009E0074A914207D1C169F7
:100DB00041F00201C161C06900F00200009008BD6D
:100DC000002C0140001002400004004070B50446B1
:100DD00090F83C000025012817D0012684F83C60DB
:100DE000022084F83D002068826822F0770222F415
:100DF0007F4282600868502838D00DDC20284FD010
:100E000005DC90B3102811D14AE0022070BD3028D3
:100E100046D040280AD13BE060282FD070280DD062
:100E2000B0F5805F03D0B0F5005F12D0012584F8E3
:100E30003D60002084F83C00284670BDCB68D1E9B5
:100E40000121206801F009FB2068816841F07701E9
:100E500009E0CB68D1E90121206801F0FEFA2068A1
:100E6000816841F480418160E1E719E0CA6849681E
:100E7000206801F0A7FB5021206806E0CA68496895
:100E8000206801F0DDFB6021206801F0F0FACEE778
:100E9000CA684968206801F095FB40212068F4E7A2
:100EA000226801461046F0E770472DE9F0410546FB
:100EB00090F83C0000260C46012810D0012085F84F
:100EC0003C0072B1042A1CD0082A2CD00C2A50D025
:100ED0000126002085F83C003046BDE8F081022064
:100EE000FBE7D4E90012E368286801F07DFB28687D
:100EF000816921F00C01816128688169A268114330
:100F00000FE0D4E90012E368286801F0ABFB286821
:100F1000816921F44061816128688169A26841EAA0
:100F200002218161D5E72868D4E9002C277B036A78
:100F3000016A21F480710162C16923F4007321F018
:100F4000030141EA0C0121F0F00C39074FF400775E
:100F50004CEA116107EA02221A43C1610262286861
:100F6000C16921F00C01C1612868C169A2681143FF
:100F70002BE02868D4E90021E768036AD0F820C094
:100F80002CF4805CC0F820C0D0F81CC023F40053BF
:100F90002CF4407C4CEA012121F4704C4FF6FF7197
:100FA00001EA07314FF4005741EA0C0107EA023227
:100FB0001A43C16102622868C16921F44061C161BC
:100FC0002868C169A26841EA0221C16181E710B5C0
:100FD000040003D094F83D0010B107E0012010BDDB
:100FE000002084F83C00204600F01EF8022084F81F
:100FF0003D00211D206801F0E7F9012084F846003A
:1010000084F83E0084F83F0084F8400084F84100F2
:1010100084F8420084F8430084F8440084F84500D2
:1010200084F83D00002010BD00B585B0002100917E
:101030000191029103910068B0F1804F1ED11048D8
:10104000C16941F00101C161C16901F0010104916F
:10105000816941F0040181618069694600F0040002
:101060000490012000900748FFF7EAF9002211469A
:101070001C20FFF74BFB1C20FFF73AFB05B000BD1F
:10108000001002400008014030B50446002551B16F
:1010900004290DD0082910D094F8410094F8452077
:1010A000012811D10EE094F83E0094F84220F7E7B1
:1010B00094F83F0094F84320F2E794F8400094F845
:1010C0004420EDE7012A01D0012030BD022059B1B2
:1010D000042912D0082919D084F8410084F8450069
:1010E0000C2938D0012534E084F83E0084F8420011
:1010F0002068C26842F0020210E084F83F0084F8E1
:1011000043002068C26842F0040207E084F840000F
:1011100084F844002068C26842F00802C2600122DC
:10112000206801F08DF90E492068884208D0B0F19E
:10113000804F05D00B49884202D00B49884204D128
:10114000816801F00701062903D0016841F001011F
:101150000160284630BD2068C26842F01002DDE719
:10116000002C014000040040000800402DE9F0413F
:1011700004460068C66805694FF00007A90713D543
:10118000B10711D5F91E016101202077206880691F
:101190008007204602D0FFF787FE04E000F0C6F883
:1011A000204600F058F92777680716D5700714D540
:1011B00021686FF0040008610220207720688069B0
:1011C00010F4407F204602D0FFF76EFE04E000F0EE
:1011D000ADF8204600F03FF92777280715D53007EE
:1011E00013D521686FF0080008610420207720687B
:1011F000C0698007204602D0FFF756FE04E000F0E9
:1012000095F8204600F027F92777E80616D5F0066E
:1012100014D521686FF0100008610820207720683D
:10122000C06910F4407F204602D0FFF73DFE04E085
:1012300000F07CF8204600F00EF92777E80708D088
:10124000F00706D021686FF001000861204600F029
:1012500051F9280608D5300606D521686FF08000C0
:1012600008612046FFF704FD680608D5700606D51C
:1012700021686FF040000861204600F051F9A8068F
:101280000AD5B00608D521686FF020000861204615
:10129000BDE8F041FFF7EDBCBDE8F08100B585B0D9
:1012A000002100910191029103911A4B02681A48A2
:1012B00002219A4211D1826942F00402826180695E
:1012C000039100F004000490C801CDE900016946D3
:1012D0001248FFF7B5F805B000BD114B9A42FAD19C
:1012E000826942F0080282618069039100F008007F
:1012F00004903320CDE9000169460A48FFF7A0F8C1
:101300000948416821F4406141F0E06141F4006125
:101310004160E0E7002C014000100240000801405D
:1013200000040040000C014000000140704770B50F
:10133000044690F83C0000260D4601280FD00120FD
:1013400084F83C006AB1042A1DD0082A2FD00C2A48
:101350003FD00126002084F83C00304670BD0220BA
:1013600070BD206801F08CF82068816941F00801A7
:1013700081612068816921F00401816120688169AF
:101380002A69114311E0206801F0A2F82068816900
:1013900041F4006181612068816921F4806181618B
:1013A000206881692A6941EA02218161D2E72068C7
:1013B00001F0BAF82068C16941F00801C1612068F4
:1013C000C16921F00401C1612068C1692A69114322
:1013D00011E0206801F0D4F82068C16941F400618F
:1013E000C1612068C16921F48061C1612068C1695F
:1013F0002A6941EA0221C161ACE710B5040003D0BB
:1014000094F83D0010B107E0012010BD002084F8E1
:101410003C00204600F01EF8022084F83D00211D0B
:10142000206800F0D1FF012084F8460084F83E00D7
:1014300084F83F0084F8400084F8410084F84200BA
:1014400084F8430084F8440084F8450084F83D00A3
:10145000002010BD7047704710B50446022249B104
:1014600004290ED0082913D094F84100012816D081
:10147000012010BD94F83E000128F9D184F83E20E7
:101480000FE094F83F000128F2D184F83F2008E0F3
:1014900094F840000128EBD184F8402001E084F862
:1014A00041200122206800F0CBFF0F4920688842CC
:1014B00003D1426C42F4004242642068884208D062
:1014C000B0F1804F05D00949884202D008498842CE
:1014D00004D1816801F00701062903D0016841F0B9
:1014E00001010160002010BD002C014000040040FB
:1014F0000008004070470246002041B1042909D08D
:1015000008290AD00C2901D11068006C70471068B6
:10151000406B70471068806B70471068C06B7047F5
:101520007047704770470000F8B5016804460868C6
:10153000CA684B6910F00F0F4FF0000559D003F047
:10154000010602F49077374365D0C10705D0D10575
:1015500003D5616C41F001016164410705D5D907EC
:1015600003D0616C41F002016164810705D5D907A0
:1015700003D0616C41F004016164010707D502F0FA
:101580002001314303D0616C41F008016164616C5A
:1015900000293AD0800604D5900602D5204601F0F5
:1015A000E4F820684069616CC0F38010090700D43A
:1015B00060B3204601F0B2F820684069400621D5AA
:1015C0002068143050E8001F21F0400140E800126C
:1015D000002AF5D1E06BA8B16D494163E06BFEF7DD
:1015E000D1FE002811D0E06B416B01B0BDE8F040A6
:1015F000084783060FD593060DD52046BDE8F84071
:1016000001F0B3B82046FFF78DFFF8BD2046FFF785
:1016100089FF6564F8BD266B2023012E7CD1C606A8
:101620007AD5D60678D508684868009048694FF0A2
:101630000206400640D5E16B086840680004000CD3
:10164000E8D0A28D8242E5D9E085886920282DD096
:1016500020680C3050E8001F21F4807140E800122F
:10166000002AF5D12068143050E8001F21F0010154
:1016700040E80012002AF5D12068143050E8001F1D
:1016800021F0400140E80012002AF5D184F84230F0
:10169000256320680C3050E8001F21F0100140E85D
:1016A0000012002AF5D1E06BFEF748FE6663A08DBC
:1016B000E18D401A81B22AE0A08DE18D401A81B2FD
:1016C000E08D0028A6D00029A4D022680C3252E870
:1016D000000F20F4907042E80007002FF5D1206839
:1016E000143050E8002F22F0010240E80027002FBC
:1016F000F5D184F84230256320680C3050E8002F83
:1017000022F0100240E80023002BF5D1666320464A
:10171000FFF707FFF8BDFFE705062BD5150629D50E
:1017200094F841002128F5D1A068B0F5805F01D17F
:101730002069B0B1206A411C2162216800784860AC
:10174000E08C401E0004000CE084E3D12068C168F6
:1017500021F08001C1602068C16841F04001C16092
:10176000D8E7206A0088C0F308004860206A801C1F
:101770002062E5E74006CDD55006CBD5CA682046A5
:1017800022F04002CA6084F8413000F0EBF8C1E773
:101790000D27000870B5040004D094F8410000251E
:1017A00010B106E0012070BD84F84050204600F0E2
:1017B00023F8242084F841002068C16821F40051F6
:1017C000C160204601F032F82068016921F490419F
:1017D00001612068416921F02A0141612068C168E6
:1017E00041F40051C1606564202084F8410084F810
:1017F00042006563002070BD30B585B000240094C0
:101800000194029403940068184988422CD1184826
:10181000816941F480418161816901F480410491D1
:10182000816941F0040181618069124D00F004007A
:1018300004904FF400700090022001900320039068
:1018400069462846FEF7FCFD2815CDE900046946E7
:1018500028460294FEF7F4FD002211462520FEF7EB
:1018600055FF2520FEF744FF05B030BD003801408C
:10187000001002400008014090F84230202B01D0B7
:101880000220704721B11AB10023036301F02AB886
:101890000120704710B50068074988420BD10748FE
:1018A000407800F09BFC05490122BDE81040491C2E
:1018B0000348FFF7E1BF10BD003801403C000020A5
:1018C000180100202DE9F843044690F8410098469D
:1018D00016460D46202802D00220BDE8F88385B1C7
:1018E0007EB100206064212084F84100FEF7A2FE52
:1018F000A6848146E684A0682027B0F5805F02D0E8
:1019000003E00120E9E7206910B12E4600250EE032
:1019100000260CE08021204600F0FFFFA8B9C6B1E8
:1019200016F8010B21684860E08C401EE084E08CD2
:101930004B464FF00002CDF800800028EAD14FF06E
:101940004001204600F0E9FF40B184F841700320D7
:10195000C3E735F8020BC0F30800E3E784F84170F1
:101960000020BAE77047000010B500220123144997
:1019700008280FD0092814D0C31E032B01D9022830
:101980001CD10878002819D00A704A70BDE81040B0
:10199000FEF7AEBC0878022810D0022008704B7009
:1019A00004E00878012809D00B704A708A70FEF7AD
:1019B0009FFCBDE810406420FEF730BD10BD000064
:1019C00000000020FEE700002DE9F04786B000246B
:1019D00031480094019402940394816941F010010C
:1019E0008161816901F010010491816941F0200158
:1019F0008161816901F020010491816941F0040154
:101A00008161816901F004010491816941F008015B
:101A100081618069DFF8848000F008004FF4005590
:101A20000490002229464046FEF7FFFDDFF8709043
:101A3000002210214846FEF7F8FDDFF868A04FF2BB
:101A4000C037002239465046FEF7EFFD00950226CA
:101A500001250396CDE9015469464046FEF7F0FCA6
:101A60000E20CDE90004694648460294FEF7E8FCE2
:101A70001020CDE90005CDE9024669464846FEF74B
:101A8000DFFC00970396CDE9015469465046FEF706
:101A9000D7FC06B0BDE8F0870010024000100140FE
:101AA00000080140000C014010B596B000240F94CE
:101AB00010941194129413941C2108A81494FEF706
:101AC00083FB20216846FEF77FFB294827490160F8
:101AD00040F2CF21C0E9011440F2CF71C0E90314F4
:101AE00044618461FFF724F908B1FEF725FC4FF447
:101AF00080500F900FA91E48FFF768F908B1FEF754
:101B00001BFC1B48FFF779FC08B1FEF715FC13948A
:101B100013A917481494FFF7D7F808B1FEF70CFC87
:101B20006020CDE908040A940B940C940D940022D3
:101B300008A90F480E94FFF7FAFB08B1FEF7FCFB6B
:101B400000944FF40050CDE90440029401940394B2
:101B5000694607480794FFF78DF808B1FEF7ECFBDC
:101B60000348FFF79BFB16B010BD0000002C01409E
:101B70004000002010B586B0002418480594049455
:101B80000094019402944FF0804103940160472136
:101B9000C0E901144FF6FF71C0E903148461FFF737
:101BA00016FA08B1FEF7C8FB049404A90B48059483
:101BB000FFF78AF808B1FEF7BFFB0120CDE900402E
:101BC00002940022694605480394FFF76EF9002845
:101BD00001D0FEF7B1FB06B010BD00008800002068
:101BE00010B58EB000240794089409940A940B94BD
:101BF0001C2168460C94FEF7E7FA2A482849016040
:101C00004721C0E9011440F2E731C0E903148461BF
:101C1000FFF78EF808B1FEF78FFB4FF48050079066
:101C200007A92048FFF7D2F808B1FEF785FB1D4849
:101C3000FFF7E3FB08B1FEF77FFB0B940BA91948F4
:101C40000C94FFF741F808B1FEF776FB6020CDE970
:101C5000000402940022694612480494FFF767FBCF
:101C600008B1FEF769FB042269460E48FFF75FFBE7
:101C700008B1FEF761FB082269460A48FFF757FBE7
:101C800008B1FEF759FB0C2269460648FFF74FFBE7
:101C900008B1FEF751FB0348FFF700FB0EB010BD83
:101CA00000040040D00000200C4810B50A49016033
:101CB0004FF416514160002181600C22C160C0E9DF
:101CC00004128161C161FFF765FD002803D0BDE802
:101CD0001040FEF731BB10BD003801401801002054
:101CE000FEE7000010B500210948FFF7B5FB04210D
:101CF0000748FFF7B1FB08210548FFF7ADFB0C21B2
:101D00000348FFF7A9FBBDE81040FEF7F1BA000059
:101D1000D000002070B54FF47A72914200D911467C
:101D20001F4A136859631268D1634FF400511D4C68
:101D30004D100E11C0B1012821D002282FD1002250
:101D40002046FEF772FC002229462046FEF76DFC75
:101D5000002231462046FEF768FC00222046BDE8FE
:101D600070404021FEF761BC01222046FEF75DFC79
:101D7000002229462046FEF758FC0122E9E700220E
:101D80002046FEF752FC012229462046FEF74DFC74
:101D9000002231462046FEF748FC0122DEE770BDF6
:101DA000D0000020000C014070B54FF47A729142CF
:101DB00000D911461F4A13689963126811644FF4E1
:101DC00080411D4C4D008E11C0B1012826D0022843
:101DD0002FD100222046FEF728FC0022294620466B
:101DE000FEF723FC002280212046FEF71EFC002285
:101DF00031462046BDE87040FEF717BC0022204661
:101E0000FEF713FC012229462046FEF70EFC0022B5
:101E100080212046FEF709FC0122E9E70122204645
:101E2000FEF703FC002229462046FEF7FEFB0122B6
:101E3000D9E770BDD0000020000C0140FEE7000093
:101E40002DE9F04100F0EEFD154F28B1FEF7F2FB51
:101E500006460025134C1CE03846BDE8F08120788A
:101E6000012802D0207802280CD1FEF7E3FBE168BC
:101E7000401A3C2806D90C480068C16821F00201CC
:101E8000C16004E0FEF7D6FB801B462801D925700F
:101E9000E2E720780328E2D120692570DDE7000021
:101EA000000080BF280000208800002010B500211D
:101EB0000948FFF7D1FA5A2000F02AFA0021074812
:101EC000FFF7E2F8054801680A6A22F00A020A628E
:101ED0000068016A016210BD4000002088000020F7
:101EE0002DE9F041064614460D460A2000F010FA8E
:101EF0004FF4C8773846FEF791FAFFF7A1FF20604C
:101F00005A2000F005FA4FF4FA742046FEF786FADC
:101F1000FFF796FF2860AA2000F0FAF92046FEF7A6
:101F20007DFAFFF78DFF30605A2000F0F1F9384656
:101F3000BDE8F041FEF772BA70B505460068B0F131
:101F4000804F2FD1244E3068C16821F00201C1605A
:101F5000224C207801280FD02078022822D100219D
:101F60002846FFF7C8FAA060A068616888421AD3C3
:101F7000A0686168401A1DE000212846FFF7BBFAFF
:101F800060602868016A21F00A0101622868016A1C
:101F900041F002010162022020703068C16841F006
:101FA0000201C16070BD60684FF6FF71081AA16838
:101FB0000844401C00F0EAFE094900F02FFF2061B0
:101FC000032020702868016A21F00A010162286854
:101FD000016A016270BD0000880000202800002016
:101FE00096438B3C704700002DE9F0470125002700
:101FF0004F4C012802D0072805D00BE0607848B983
:102000006570A77006E06078012803D16770A7703B
:10201000FEF76EF96078002827D0A07804264FF4E8
:1020200016794FF4FA7A4FF0FF3807281DD2DFE80F
:1020300000F0041E253466707C004846FEF734F933
:10204000FFF7FEFE0646FEF7F5FA6168401A5045B6
:1020500005D9304600F002F9FEF7ECFA6060354829
:10206000A6F50006864200D2A570BDE8F087FEF70F
:102070003FF9FEF7DFFAA06002200CE0FEF7DAFA83
:10208000A168401AC828F0D9294A1432111F081F24
:10209000FFF726FF0320A070E7E7274B606998420F
:1020A00001DD012200E00022E168994201DD012307
:1020B00000E0002332EA030709D05046FEF70CF98E
:1020C00084F80350FEF7B6FAA060A670CDE733EAB5
:1020D000020706D04FEA0A00FEF7F2F884F8038000
:1020E000F0E71A4203D000F065FFF3D2E5E7484677
:1020F000FEF7CEF8FEF79EFAA0600520CBE7FEF7CC
:1021000099FAA168401A5045AFD9FEF7F1F80620B8
:10211000C1E7FEF78FFAA168401AB0F5FA6FA4D9AB
:10212000E07801284846D7D0C8E7A7709DE70000AF
:10213000000000200000F0400000704101464FF414
:102140001670082917D2DFE801F01604080C0E10EB
:1021500012144FF46170FEF7A7B84FF42F70FEF71A
:1021600097B8FEF7D0B8FEF7DAB8FEF7A9B8FEF7D1
:10217000B3B8FEF7BDB8704710B500F08FFA48B19C
:102180004FF4167101280BD002280ED0BDE8104084
:10219000FEF7AEB8BDE810404FF42F70FEF784B8DC
:1021A000BDE810400846FEF797B8BDE81040084665
:1021B000FEF786B8034908780A78002A01D0002281
:1021C0000A7070473C000020012202490248FFF7D4
:1021D00053BB00003D000020180100201D4953287A
:1021E00031D012DC47282AD008DC31282DD0322803
:1021F0002DD042281DD0462817D118E0482820D0DD
:102200004C2818D0522810D117E0682819D006DCC5
:1022100062280ED066280AD0672806D10FE06C2805
:1022200009D0722809D073280DD00A2010E00120AF
:102230000EE002200CE003200AE0042008E0052064
:1022400006E0062004E0072002E0082000E0092064
:10225000087070473C000020704700002DE9F041F5
:102260008CB0074644208DF800003A2002246E46C8
:102270008DF801004FF00A0817F1FF4F07D32D200A
:102280008DF8020031208DF80300042430E0384638
:1022900000F028FD054600F061FD394600F0BBFE68
:1022A000194900F0BBFD00F01DFD01461DB10020E5
:1022B00008AA43460DE030208DF80200032411E007
:1022C00095FBF3F703FB175795FBF3F530371754DE
:1022D000401C002DF4DC03E0401E135C3355641CED
:1022E0000028F9DC2E203055641C30313155641C37
:1022F000642306F80480641CA2B269460348FFF711
:10230000E1FA0CB0BDE8F081000020411801002086
:1023100010B5B42800D9B42000F038FD074900F00A
:102320001FFC074900F07AFD064900F0ABFB00F006
:10233000F5FC054980B20968486310BD00003443CC
:10234000000048430000484240000020FEF778B9F2
:1023500030B58FB028216846FDF736FF14210AA852
:10236000FDF732FF01210804CDE90010002402949A
:1023700002250491CDE907504FF4E010099068461A
:10238000FEF7D2FA08B172B6FEE70F20CDE90A05D2
:102390004FF48060CDE90C4002210AA80E94FEF7AC
:1023A000E7F9002801D072B6FEE70FB030BD7047E4
:1023B00010B50448FFF7C0FDBDE810400148FEF726
:1023C000D5BE000088000020F0B50268194B1A4CF9
:1023D0001A4D4FF08047984205D0B84203D0A04232
:1023E00001D0A84203D122F070064A6832439842D5
:1023F00005D0B84203D0A04201D0A84203D122F4B4
:102400004074CA6822434C6922F080022243026071
:102410008A68C2620A688262984201D109690163CE
:10242000012141610169C90703D0016921F001015E
:102430000161F0BD002C0140000400400008004094
:1024400010B501F01F030121046A99408C43046216
:10245000016A9A401143016210BD10B5846842EAD6
:10246000032224F47F440A432243826010BD826821
:1024700022F070020A4342F00701816070470000B9
:1024800030B5036A026A22F001020262426884697E
:1024900024F073050C682C4323F002058B682B4352
:1024A0000A4DA8420BD123F00805CB6822F44072F4
:1024B0002B434D6923F0040315438A692A43426084
:1024C000846149684163036230BD0000002C014013
:1024D00030B5026A036A23F010030362436884691B
:1024E0000D6824F4E64444EA05248D6822F02002B5
:1024F00042EA05120B4DA8420ED1CD6822F08002AF
:1025000042EA05124D6923F4406343EA85038D696D
:1025100022F0400243EA8503436084614968816395
:10252000026230BD002C014030B5036A026A22F419
:10253000807202624268C46923F4007324F0730558
:102540000C682C438D6843EA05230C4DA8420ED13C
:10255000CD6823F4006343EA05234D6922F4405219
:1025600042EA05128D6923F4806342EA0512426053
:10257000C4614968C163036230BD0000002C0140A2
:1025800030B5046A026A22F4805202624268C3696A
:102590000D6823F4E64343EA05238D6824F40054D0
:1025A00044EA0534064DA84204D14D6922F4804224
:1025B00042EA85124260C36149680164046230BD29
:1025C000002C014010B5036A046A24F0010404627F
:1025D000846924F0F00444EA021423F00A020A4356
:1025E0008461026210BD000070B5056A046A24F0BF
:1025F0000104046284690F4EB04208D0B0F1804FEC
:1026000005D00D4EB04202D00C4EB04203D124F0A2
:102610000304144301E044F001041A0724F0F00419
:1026200044EA126225F00A0301F00A0119438261AB
:10263000016270BD002C0140000400400008004011
:1026400010B5036A046A24F010040462846923F05C
:10265000A00324F4704444EA023243EA0111826187
:10266000016210BD30B5046A056A25F010050562E7
:10267000856925F4407545EA022222F470454FF63B
:10268000FF7202EA033224F0A0032A43A02404EAE2
:10269000011119438261016230BD000070B51A4E0C
:1026A00002213046FDF7BCFF054604213046FDF708
:1026B000B7FF044608213046FDF7B2FF15B1012DE2
:1026C00007D00AE0012C08D100280BD0012809D03E
:1026D00003E0012C00D004B918B155EA040102D07E
:1026E00003E0022070BD0128FCD0012D03D1012C94
:1026F00001D1012803D0014303D0052070BD032080
:1027000070BD042070BD00000008014010B5406A93
:102710000021C185C184FEF705FF10BD01680C31A1
:1027200051E8002F22F4907241E80023002BF5D1EC
:102730000168143151E8002F22F0010241E8002322
:10274000002BF5D1016B012909D101680C3151E849
:10275000002F22F0100241E80023002BF5D12021A8
:1027600080F8421000210163704708B590F84210CC
:10277000222901D0022008BD82684FF480539A427A
:1027800001D1016921B1816A9A421BD04AB10AE0A4
:102790000268816A5268C2F308020A80816A891C51
:1027A00008E0026972B10268526802F07F020A70A2
:1027B000816A491C8162C18D491E0904090CC185C9
:1027C00003D01BE002685268F1E70168CA6822F092
:1027D0002002CA600168CA6822F48072CA60016877
:1027E0004A6922F001024A61202180F8421000214A
:1027F0004163026B012A03D0FFF74CF8002008BDAB
:10280000016301680C3151E8002F22F0100241E809
:102810000023002BF5D101680A68D20602D50A68A8
:1028200049680091818DFEF77CFEE7E770B50446AC
:1028300000680169E26821F4405111430161216996
:10284000A0680843616908432168CA6841F20C63C3
:102850009A430243CA6020684169A26921F4407129
:10286000114341611E492068884202D1FEF726F8D3
:1028700001E0FEF713F800EBC00101EB0012606805
:1028800064218000B2FBF0F3B3FBF1F36FF01806A4
:102890007343B2FBF0F5B2FBF0F605EB8305322390
:1028A00003EB0515B5FBF1F5B6FBF1F605F0F00508
:1028B00005EB0615B2FBF0F6B2FBF0F0B0FBF1F061
:1028C0006FF01802504306EB800003EB0010B0FBE2
:1028D000F1F0216800F00F002844886070BD00000E
:1028E0000038014081628285C28500214164222135
:1028F00080F84210016921B10168CA6842F480720F
:10290000CA6001684A6942F001024A610068C16810
:1029100041F02001C160002070472DE9F84398463E
:1029200017460D460446089E24E0701C22D0FDF791
:1029300081FEA0EB0800B0421AD8CEB12068C16871
:10294000490717D5802D15D0402D13D00168C943F4
:1029500009070FD401680025406800902046FFF762
:10296000DDFE0820606484F840500120BDE8F88353
:102970000320FBE72068006835EA000004D000204F
:10298000B842D2D00020F1E70120F9E70148FEF774
:10299000CBBD000018010020FEE70907090E002842
:1029A00004DB00F1E02080F80014704700F00F0015
:1029B00000F1E02080F8141D70470000FDF748FE8C
:1029C000FFF7C6FCFFF700F8FFF76EF8FFF7D2F845
:1029D000FFF706F9FFF768F9FFF784F9FFF766FAE2
:1029E000FFF7F2FBFDF784FC0D4C00BFFFF7E2FBA5
:1029F0000546FEF7B9FF217821B1012906D0022949
:102A00000AD107E02846FFF799FB05E02846FFF7C3
:102A1000EBFA01E0FFF7B0FB1420FDF7FFFCE5E760
:102A20000000002038B5144C207838B120780328F5
:102A300004D02078042801D0002038BD0F4D012299
:102A400010212846FDF7F1FD00200090401C009069
:102A50009628FBDB002210212846FDF7E6FD012029
:102A60002070FDF7E7FDE06005480068C16841F0AF
:102A70000201C160012038BD28000020000801408B
:102A80008800002090EA010F48BF81F0004100F16A
:102A9000D482421A3CBF801A89184FEAD0524FF0B4
:102AA0007F4C1CEA410FA2EBD15318BF9CEA026F86
:102AB00000F03B804FF0004C4CEA00204CEA012132
:102AC00021FA03FC10EB0C0C1ED202F1FF325FEA7C
:102AD0001C2040EBC25038BF70471CF07F0F4FEAFC
:102AE000400C18BFBCF17F4F38BF7047C3F12003C3
:102AF000994008BF20F00100BCF17F4F38BF7047FC
:102B0000A0F1C04000F051BA4FEA3C00000A40EB8F
:102B1000C25028BF1CF0FF0F4FEA400CE6D018BF90
:102B2000BCF17F4F38BF7047EAE79CEA026F05D0DF
:102B300010EA5C0F08BF00F00040704710B500F0CD
:102B4000EEF900BF64FBBE3E401058BFC0F14040EC
:102B5000491058BFC1F140418142EFF300807047F6
:102B60004FF47F0C1CEAD0121EBF1CEAD11392EA6C
:102B70000C0F93EA0C0F00F0858090EA010F48BF1C
:102B800042F4807240F4000C41F400002CF07F41CC
:102B900020F07F4000B58142A2EB03020FF2081C37
:102BA000ACEB504EC0F100009EF800E04FEA4E0E34
:102BB00000FB0EFC38BF49004FEA2C1C02F5FA025C
:102BC0000CFB0EF34FEACE1E4FEA112C4FEAC12147
:102BD0000EEB635E42EB22420EFB0CFC4FEA1C53F1
:102BE00000FB03114FEA112C4FEA01310EFB0CFCE4
:102BF0004FEADC4C00FB0C11C14228BF09184CEB1A
:102C000003335DF804EB10EB410143EBC250B2F526
:102C10007C0F38BF704729D512F0F00F1CBF00F1B0
:102C2000C04000F000407047008182838485868721
:102C300088898B8C8D8E8F919293959697999A9C7B
:102C40009D9FA0A2A3A5A7A8AAACAEB0B2B3B5B7EA
:102C5000B9BCBEC0C2C5C7C9CCCED1D4D7D9DCDFC0
:102C6000E2E6E9ECF0F3F7FAFE0000004FEA400C70
:102C70000CF1807CBCF17E4F28BF7047B0F1C040A2
:102C800000F093B990EA010F0CEAD11348BF42F467
:102C90008072624538BF634507D213F47F0F16D0A8
:102CA00080EA010000F00040704710B500F037F9ED
:102CB000097EFC3E00F005B880EA010000F000400B
:102CC000704780EA010000F0004000F06EB912F495
:102CD0007F0F04BF0248704780EA010000F065B929
:102CE0000000C07F41000B0ED3F19E0208D950F4C2
:102CF00000034FEA032323FA02F048BF4042704723
:102D000010B500F00CF900BF4992248000207047F4
:102D10006FF0004282EA200070470000C10DD1F13F
:102D20009E0206DB4FEA002343F0004323FA02F041
:102D30007047004207D54FEA4001B1F1FE4F02D281
:102D40004FF00000704710B500F0E9F84992248078
:102D5000002070476FEA20007047000010F000412B
:102D600048BF4042B0FA80F310FA03F2C3F19D036A
:102D70000BD051EAC35101EB1220530638BF704704
:102D800000F1010008BF20F001007047B0FA80F3A5
:102D900010FA03F2C3F19D030AD0D90501EB12200A
:102DA000530638BF704700F1010008BF20F0010052
:102DB0007047000050EA010C00F113801CF5000F71
:102DC00058BFBCF5000F01D48842704707D710F5F3
:102DD000000F58BF11F5000F15D488427047894283
:102DE00070471CF5000F04D5BCF5000FF7D58142E4
:102DF00070474FF0807C1CEB400F38BF1CEB410F3D
:102E000001D28142704710B500F089F89224490040
:102E10004FF000504FF08051FFF796BE4FF47F0CFB
:102E20001CEAD0121EBF1CEAD11392EA0C0F93EADF
:102E30000C0F00F0478090EA010F48BF42F4807207
:102E40004FF0004C4CEA00204CEA012102EB030257
:102E5000A0FB0113A2F50002002918BF43F00103F3
:102E60005B0028BF4FEA330342EB22425FEA132C98
:102E70004CEBC2502EBFBCEB436FB2F57C0F7047DA
:102E80004FEA036CBCF1004F08BF20F00100B2F51F
:102E90007C0F38BF70470BD582F0FF0212F5803FE0
:102EA000C8BF704700F1C040D8BF00F00040704775
:102EB00000F5000C5FEA4C0C48BF7047B0F1C04011
:102EC00000F073B890EA010F0CEAD11348BF42F446
:102ED0008072624538BF634504D280EA010000F089
:102EE0000040704710B500F01AF800BF8900013E9D
:102EF00000F007B800F009B85FEA410C5FEA1C6C0B
:102F000008D080EA010000F050B85FEA400C5FEAA8
:102F10001C6CF6D14FF00040A0F5800070470EF118
:102F2000020E2EF0030E5EF8044B244204D44FEA46
:102F30004102B2F17F4F11D84FEA4003B3F17F4F06
:102F40000CD80ED14FEAD07CB2F17F4F0CEB4C0C79
:102F50000CF1020C08BF4CEBD17C04E04FF0080CE4
:102F600001E04FEAD17C0CEB4C0324FA03F404F0AB
:102F70000704B4F1040C06D20EEB840CBDE810403B
:102F80004CF0010C6047DFE80CF0070802024FF03C
:102F90000040A0F5800010BD0846420018BFD2F1E5
:102FA000807288BF00F0004010BDFF2141EAD05080
:102FB000C005704751EA000C00F113801CF5000FAA
:102FC00058BFBCF5000F01D48142704707D711F5F7
:102FD000000F58BF10F5000F15D481427047894289
:102FE00070471CF5000F04D5BCF5000FF7D58842DB
:102FF00070474FF0807C1CEB410F38BF1CEB400F3B
:1030000001D28842704780EA010081EA000180EA2B
:103010000100FFF7F8BE80F0004090EA010F7FF555
:1030200038AD81F0004100F008B8000090EA010FCF
:1030300048BF81F000413FF52CAD421A04D882F020
:103040000042A0EB020011444FEAD0524FF07F4CF7
:103050001CEA410FA2EBD15318BF9CEA026F4AD081
:103060004FF0004C4CEA00204CEA012121FA03FC0D
:10307000B0EB0C0C0FD412F0FE0F36D05FEA4C0010
:103080001DD5001240EBC25038BF70471CF03F0FF7
:1030900018BF70470BE0A2F101025FEA1C2040EB71
:1030A000C25038BF70471CF07F0F18BF7047C3F184
:1030B0002003994014BF401E20F001007047800893
:1030C0004FEA122308BF7047B0FA80FCA2EB0C0253
:1030D000CCF1280C60FA0CF093EA122F04BF00EB3D
:1030E000C25070474FEAC3707047130A5FEADC10A2
:1030F00008BF7047F6E79CEA026F04D010EA5C0F45
:1031000008BF0020704710B5FFF709FF40DFF63E0B
:1031100081F0004070470102020304050607080918
:103120000A0B0C0D0E0F1010000000000000000034
:10313000010203040607080900000000010203045D
:103140006031000800000020400000002801000855
:10315000A031000840000020800700004401000862
:10316000000000010000000000000000000000005E
:10317000000000000000000001000000100000003E
:103180000000000000127A000000000000000000B3
:103190000000000000000000000080BF00000000F0
:04000005080000ED02
:00000001FF
